:10000000FC7F00204105000031050000350500009F
:1000100000000000000000000000000000000000E0
:100020000000000000000000000000003905000092
:1000300000000000000000003D0500005D0700001A
:1000400010B5064C2378002B07D1054B002B02D0AE
:10005000044800E000BF0123237010BD60000020B1
:1000600000000000A413000008B5084B002B03D0CB
:100070000748084900E000BF07480368002B03D089
:10008000064B002B00D0984708BDC046000000007A
:10009000A4130000640000205C00002000000000A9
:1000A00010B52049204B0A78002A08D11F4A187839
:1000B00012788218D2B21A701D4A4020D0610A7894
:1000C0000132D2B20A701A78F02A08D9174A107889
:1000D0004042C0B2107018781278821817E0154AA2
:1000E0001C781078844214D21048047864B2002C32
:1000F0000FDA1478052C01D1462400E00524147091
:1001000002785242D2B202701C780278A218D2B29F
:100110001A700A781B789A4202D1054B4022DA61A4
:1001200010BDC0467C00002001000020000000201F
:10013000002800400200002070B50368041C988B62
:100140001A1C0821FF32084226D080209983987219
:10015000112353704021144B917150715E68134DFF
:10016000C0202E40800506435E605E69354028430E
:1001700058610F4818600F4818615D680E482840A4
:100180008025AD02284358605868800B8003586072
:1001900000235171237105E0137ADA0602D5201C81
:1001A00000F016FB207970BD94010020FFFFFF8F47
:1001B0009400002014010020FF3F00F00023037191
:1001C0004371044B016083600B78022213430B7070
:1001D0007047C0463901000008B5254B01219A69D6
:1001E00024480A439A6100F00FFA234800F00CFA01
:1001F000224B40221A601A685106FCD58223DB0587
:100200001A7801210A431A709A78D107FCD41C4B42
:100210001F221B68590B1140914200D10521980CF7
:1002200002401F2A00D11D229B015B0F072B00D12A
:10023000032389010A431B031A438223DB051A8522
:1002400019787F220A401A701A7804210D480A434F
:100250001A7058621A890C218A431A811A8901215D
:100260008A431A810021802200F03DFF08BDC0466C
:100270000004004006001800060019009018004015
:100280002060800094010020F7B5141C1F4A5F0114
:1002900001971D1CD319061C5869271C4000400FEC
:1002A00003301033C74006D00F1C80225968120655
:1002B0000A435A6009E02F1C7B1E9F41144BBF016B
:1002C000FF18381C221C00F005FF01990F48083563
:1002D00042181761131C5269A104920B890C9203F6
:1002E0000A435A6159690B4A0A405A616B01F31873
:1002F0000222DA715979802252420A435A716B0103
:10030000F318DB799A07FAD5201CFEBD9401002072
:1003100014010020FF3F00F0F8B51A4E051C337899
:10032000141C002B12D1184B184A1A645A6C920BE9
:1003300092035A64586C164A02405A64A2235B0026
:10034000EA5C40200243EA54012333704827FF3718
:10035000EA5D0123134012D00B4B5A6C9204920CAD
:10036000A24202D25C6CA404A40C081C221C074903
:1003700000F0B0FE0123EB550023337000E01C1C9D
:10038000201CF8BD7D00002094010020D400002036
:10039000FF3F00F0FF3083792022002900D1102296
:1003A0001343837170470000084BFF305A69920B6A
:1003B00092035A6102230372827980235B421343C2
:1003C0008371037A9A07FCD57047C04694010020D8
:1003D00080235B421943C9B28172704770B5A02374
:1003E00003225B00C254134B134A5C6CC0211440BF
:1003F00089050C4346255C64FF35402444550F4D68
:1004000030261D6490256D0046555D6B15402943CF
:10041000922559636D0080214155094D1D63B0251A
:100420006D0044555C6F22405A67B2235B00C15493
:1004300070BDC04694010020FFFFFF8FD400002054
:1004400054010020024BDB68DA05FBD57047C0463B
:10045000000C004070B52B4B80215A682A4E0A438D
:100460005A605A6804210A435A6073694022134350
:1004700073618023DB0501229A719A7802210A4375
:100480009A70997901221142FBD080231F4DDB0520
:100490009A712A702B78DA0704D51C4B5A681C4BCA
:1004A0001A42F7D11B4C8022238B93432383FFF7FF
:1004B000C9FF194B1A688023920E92029B001343C6
:1004C000E361164B236292235B002383FFF7BAFF9D
:1004D000238B022213432383FFF7B4FF104B2B62BD
:1004E00000F0CAF8237D0C229343042213432375A2
:1004F0000C4BEB6200F0C0F80B4B0C4A1A60012366
:10050000337170BD004000410004004000180040FD
:10051000FD070000000C00402060800080BB0A7CCA
:10052000070301000601010004000020006CDC024A
:100530000EBEFEE70DBEFEE705BEFEE702BEFEE70D
:100540000E4A0F4838B5824204D10E4A0E4B9342F0
:100550000ED10AE00D4C9442F7D00023D118884206
:10056000F3D9E55804330D60F8E700F08FF804E0A4
:100570009342FAD2002102C3FAE7FEE7000000200E
:10058000600000208802002060000020A813000006
:10059000074B98420AD8074B4208DA61064A1A808C
:1005A0001A7DD107FCD50130FF30F1E77047C04616
:1005B000FFFF03000040004102A5FFFFF0B58008E7
:1005C000002819D00D4C0E4B251C23802B7DDE07F7
:1005D000FCD500239E008F5901339751102B01D079
:1005E0008342F7D1074E26802C7DE607FCD59C0080
:1005F00012190919C01AE3E7F0BDC04600400041D6
:1006000044A5FFFF04A5FFFF70B5431C1ED0840264
:10061000E40F0F4B010C6501E4014D1BE418631955
:1006200040331E78012216431E706B08E3183033E6
:100630000A401C7892000F2191408C431C70C0B27C
:1006400019789040021C0A43D2B21A7070BDC0469D
:1006500000280040064B1A68064B9A4201D10C2331
:1006600058430023834201D00133FBE77047C04663
:1006700004000020006CDC02024B5A68024B1A4254
:10068000FAD1704700180040FD070000F8B5284D6A
:10069000284E2A6801321FD0EBB2002B1CD1264A0B
:1006A000264C17780122174001D023600AE0226807
:1006B000234B9A4201D127600EE023602148FFF7C7
:1006C000C9FF27601A4A136883F30888FF239D43F4
:1006D000174BB5605B681847FFF7BCFE62B61A4B54
:1006E00040229A605A61194B194A5A60316AC022F5
:1006F0000902090A12060A43326200229A6007229E
:100700001A6000F031F8134B0422041C1A70A3681D
:10071000201C9847104B002801D001221A701B782A
:10072000002BF4D0002000F077FA00F0CFFAFCE7BD
:100730000020000000ED00E000080040FC7F0020E9
:100740003581730720A107000028004010E000E079
:10075000BF030000000000207E00002008B5FFF766
:100760009FFC00F0B1FA08BD10B58223054CDB05F3
:100770002360FFF731FD201C2168FFF71FFD201CBF
:1007800010BDC0461402002070B5051CC0B0081C86
:10079000161C0C1C00F0AFFC40006A46032302301C
:1007A0005370107076080123E218013A11785A004C
:1007B000002906D1281C69460023FFF765FD40B0DB
:1007C00070BDB342F6DA684681520133ECE70000AF
:1007D000F7B5BA4A04681378B949271CFF37051CD6
:1007E000102038720B705378B648B74E0370937868
:1007F0003380D178338809020B4333801179B34BAE
:100800001980517918880902084318809079B049F5
:100810000880D2790888120202430A8040227A7145
:10082000A84F3A78A64F120238780F1C0243A94805
:100830008446181C624500D1C2E020DC80214900BA
:100840008A4200D16EE109DC812A00D192E0822A3D
:1008500000D195E0802A00D064E18BE081235B0029
:100860009A4200D1CFE000DA58E1C0239B009A42BF
:1008700000D157E1984B9A4200D14FE152E19023C9
:100880001B019A4269D015DCD023DB009A4222D0AA
:1008900088231B019A4269D0A023DB009A4200D032
:1008A00040E1201CFFF780FD3188286889B2FFF7FE
:1008B0008FFD3BE1894B9A4200D12FE100DC31E111
:1008C000874B9A4200D11DE1864B9A4200D029E124
:1008D00033886B7122E133881B0A012B08D10B8806
:1008E00012222868934201D80A8892B27E4911E107
:1008F00033881B0A022B08D10B88432228689342B5
:1009000001D80A8892B2794904E133881B0A032B83
:1009100000D007E13388DBB2012B17D0002B07D0C2
:10092000022B00D0FEE00A882868D2B2704911E09C
:10093000042201A86F4900F0CDFB3B8804222868FF
:10094000934201D83A8892B201A9E3E00A88286864
:100950006949D2B2FFF718FFE8E03388201C2B71F9
:10096000FFF722FD201CFFF739FDDFE0291C01C93C
:100970000122CFE0614900230B8028680222CAE0EF
:100980005E4900220A801888502210405C4A10708C
:100990001E880F20304018801888032800D9C1E035
:1009A00012781B8808335B01E418A379002A01D070
:1009B0009B0600E0DB06DB0F0B8028680222A9E023
:1009C00019887F2291434E4AC9B2117018880F21AD
:1009D000014019803188002900D0A3E0198800293E
:1009E00000D19FE01988032900D99BE012781B8869
:1009F00008335B01E318002A02D020225A718DE0EF
:100A0000102159718AE002887F239A433C4BD2B26D
:100A10001A7001880F220A4002803288002A00D012
:100A200080E00288002A00D17CE00288032A00D9F5
:100A300078E01B78002B1FD0038808335B01E31894
:100A40009B799A066AD50388202208335B01E31854
:100A50001A71038808335B01E318DB795F065DD503
:100A60000388402208335B01E318DA71038802220D
:100A700008335B01E3181EE0038808335B01E318C9
:100A80009B79D9064AD50388102208335B01E31805
:100A90001A71038808335B01E318DB799A063DD5A8
:100AA0000388202208335B01E318DA7103880122EE
:100AB00008335B01E3181A7130E0C046940000204F
:100AC0008200002083000020840000208600002097
:100AD000800000200203000001030000212000002C
:100AE000A121000021220000381100000800002090
:100AF0002D1100001C1100002011000088000020B2
:100B00008A0000200B8808222868934201D80A88AE
:100B100092B207490023FFF7B7FB07E0201CFFF75D
:100B200043FC03E0201C0121FFF734FCF7BDC04665
:100B30004C00002007B5054B0122019001A918685F
:100B4000131CFFF7A1FB01200EBDC04614020020BC
:100B500013B5054B6C4607341868211C0122FFF7BA
:100B6000DBFB207816BDC0461402002010B5074CF0
:100B7000201CFFF7E1FA031C0020834205D0226805
:100B80004823FF33D05C0123184010BD140200201D
:100B900010B5054A0C1C031C191C10680123221CEB
:100BA000FFF772FB201C10BD1402002070B5084C2A
:100BB000061C201C0D1CFFF7BFFA0023984205D02D
:100BC0002068311C2A1CFFF7A7FB031C181C70BDF2
:100BD00014020020F8B50C4C051C201C0E1CFFF75D
:100BE000ABFA0023271C341C98420AD0002C07D0F3
:100BF000291C221C3868FFF78FFB241A2D18F5E7F3
:100C0000331C181CF8BDC0461402002008B5031C94
:100C1000081C111C984708BD002802D1014A024B4C
:100C20001A6070474C1100007802002030B50A1C91
:100C30001C4985B00978031C00292AD0042A01D157
:100C4000006804E0022A01D1008800E00078520028
:100C500004A98B180B3B9C1AA3420BD00F21014017
:100C6000092902D83025294300E0373119700009DD
:100C7000013BF1E701A930230B7078234B700A2068
:100C80008B1898700D20D870074B04321B68D868F9
:100C900003E005490968C868191CFFF7B7FF05B0EC
:100CA00030BDC046900000207802002072B6EFF3FD
:100CB0000883044A1360036883F30888436818476D
:100CC0007047C0467C02002070470000F0B5D04C51
:100CD00000232360CF4B7A2287B01A70CE4DCF4EBF
:100CE0002B68301C1B6940219847CD4B00221860AF
:100CF000CC4B2F1C1E60CC4B1A60CB4DC8492A68C8
:100D000009688A42EAD2C74B1B681A78FF2A00D1C9
:100D1000C4E1232A00D06AE1C44E3378002B06D008
:100D2000BD4BC3491B680222D868FFF76FFFB94863
:100D30000378532B39D1BA492A680B6893421CD9DE
:100D4000B84801322A609A1ABA4B01681B6801310F
:100D50000160B94E9A4201D2326000E033603268DD
:100D6000206800F0B7F9336828681A182A60AD4A7D
:100D70001068C1181160B14A1370AB49AA4A0968DA
:100D80000B1C013B1360A74B1A68013A1A60AB4B6E
:100D9000A84A1B7811688B4205D29F4AC91A12686B
:100DA000206892699047C0460FE1522B07D19A4BB9
:100DB000A04A1B6811685B692068984705E14F2BC2
:100DC00004D19C4B20681B680370FEE0482B04D1C3
:100DD000984B21681B680B80F7E0572B04D1954A8C
:100DE000236812681A60F0E06F2B02D1206801219D
:100DF00006E0682B07D122688E4813880221036021
:100E0000FFF714FFE1E0772B05D1236889481B68C1
:100E100004210360F4E7472B13D1864B1868FFF7D2
:100E200045FF874B1B6883F3088862B6854B1B78A8
:100E3000002B00D1C9E0784B06201B681B6898473F
:100E4000C3E0542B04D101233370734B1B6868E05B
:100E50004E2B0CD13378002B06D16F4B74491B6895
:100E60000222D868FFF7D2FE00233370ADE0562B84
:100E70005BD13B687449D8680122FFF7C7FE3B6825
:100E80007249D8680322FFF7C1FE3B68704DD868ED
:100E9000291C0122FFF7BAFE3B686E49D8680D2273
:100EA000FFF7B4FE3B68291CD8680122FFF7AEFEAD
:100EB0005C4B69495C4E19605A4A00233360301C10
:100EC00013685D1C15601B780393002B03D0036827
:100ED00001330360F4E7504D32682B68D868FFF7A0
:100EE00095FE2B685A490122D868FFF78FFE0398B8
:100EF0005A494C4A306011604A4A1368581C1060C5
:100F00001B78002B04D0484B1A6801321A60F3E7B3
:100F10003B68D868444B1B681A1C0193FFF776FEA8
:100F20003B68D868424902224DE0424A582B07D11B
:100F30001068FFF72DFB384B49491B68D86841E022
:100F4000592B0FD11068474B002802D12068186038
:100F500003E019682268FFF731FB2F4B42491B68F9
:100F6000D8682FE05A2B30D1256813680026EB187B
:100F7000039303998D4206D02878311C00F09EF827
:100F80000135061CF5E7244B38491B680122D86857
:100F9000FFF73CFE07230F223240111C3609303187
:100FA000092A00DD07311022D21868461154013B8E
:100FB000F1D23B6804A9D8680822FFF727FE3B68F6
:100FC0002B49D8680322FFF721FE12497A230B70C0
:100FD000184B00221A60154B1B7893425ED00E4BC3
:100FE00024491B680122D868FFF710FE56E0111C47
:100FF0003039C8B20F4B092804D8186802011143D0
:1010000019604BE0111C4139052935D8373A38E0D1
:10101000740200202C0200207802002034020020FC
:10102000240200202802002030020020900000202E
:101030008C11000080020020840200202002002089
:101040007C02002091000020681100009111000036
:101050006A110000951100006C1100007811000069
:10106000811100008C000020851100008911000012
:101070008B1100008F110000111C6139052904D863
:10108000573A186801010A4307E02C2A02D119686F
:10109000216001E00648027000221A60054B1A68C0
:1010A00001321A60044B1A6801321A6025E6C04604
:1010B0002C02002030020020280200200B0A584099
:1010C000034B4000C05A0902484080B27047C046F6
:1010D000A411000010B50023934203D0CC5CC4548B
:1010E0000133F9E710BD031C8218934202D0197036
:1010F0000133FAE770470023C25C0133002AFBD1B9
:10110000581E7047F8B5C046F8BC08BC9E467047EC
:10111000F8B5C046F8BC08BC9E46704704030904F5
:10112000534453206C696272656C61620042696766
:1011300020446F7400000000120100020200004011
:10114000111122220002010200010000350B0000F3
:10115000510B00006D0B0000910B0000AD0B000067
:10116000910B0000D50B0000760020004465632041
:10117000313420323032300030303A34393A33377B
:1011800000580A0D00590A0D005A00230A0D003EAE
:1011900000322E30005B41726475696E6F3A5859A7
:1011A0005A5D000000002110422063308440A550A9
:1011B000C660E770088129914AA16BB18CC1ADD19D
:1011C000CEE1EFF13112100273325222B552944245
:1011D000F772D662399318837BB35AA3BDD39CC3ED
:1011E000FFF3DEE36224433420040114E664C77491
:1011F000A44485546AA54BB528850995EEE5CFF53D
:10120000ACC58DD55336722611163006D776F666E4
:101210009556B4465BB77AA719973887DFF7FEE78C
:101220009DD7BCC7C448E5588668A77840086118B0
:1012300002282338CCC9EDD98EE9AFF948896999DC
:101240000AA92BB9F55AD44AB77A966A711A500A84
:10125000333A122AFDDBDCCBBFFB9EEB799B588B2C
:101260003BBB1AABA66C877CE44CC55C222C033CD0
:10127000600C411CAEED8FFDECCDCDDD2AAD0BBD7C
:10128000688D499D977EB66ED55EF44E133E322E24
:10129000511E700E9FFFBEEFDDDFFCCF1BBF3AAFCC
:1012A000599F788F8891A981CAB1EBA10CD12DC12A
:1012B0004EF16FE18010A100C230E32004502540C0
:1012C00046706760B9839893FBA3DAB33DC31CD320
:1012D0007FE35EF3B1029012F322D2323542145210
:1012E00077625672EAB5CBA5A89589856EF54FE56C
:1012F0002CD50DC5E234C324A01481046674476460
:1013000024540544DBA7FAB79987B8975FE77EF7BF
:101310001DC73CD7D326F2369106B01657667676AF
:10132000154634564CD96DC90EF92FE9C899E9898B
:101330008AB9ABA94458654806782768C018E108FF
:101340008238A3287DCB5CDB3FEB1EFBF98BD89B5F
:10135000BBAB9ABB754A545A376A167AF10AD01A4F
:10136000B32A923A2EFD0FED6CDD4DCDAABD8BADAB
:10137000E89DC98D267C076C645C454CA23C832C9F
:10138000E01CC10C1FEF3EFF5DCF7CDF9BAFBABFFF
:10139000D98FF89F176E367E554E745E932EB23EEF
:0813A000D10EF01E0000000058
:1013A8000814050000093D000902430002010080FD
:1013B80032090400000102020000052400100104A3
:1013C8002402000524060001052401000107058305
:1013D800030800FF09040100020A00000007058154
:1013E80002400000070502024000000000C20100A0
:1013F8000000080069000000410000000000000033
:0400000300000541B3
:00000001FF
